{
  "_format": "hh-sol-artifact-1",
  "contractName": "CertificationRegistry",
  "sourceName": "contracts/CertificationRegistry.sol",
  "abi": [
    {
      "inputs": [],
      "stateMutability": "nonpayable",
      "type": "constructor"
    },
    {
      "anonymous": false,
      "inputs": [
        {
          "indexed": true,
          "internalType": "address",
          "name": "farmer",
          "type": "address"
        },
        {
          "indexed": true,
          "internalType": "address",
          "name": "certifier",
          "type": "address"
        },
        {
          "indexed": false,
          "internalType": "uint256",
          "name": "expiryDate",
          "type": "uint256"
        }
      ],
      "name": "CertificationGranted",
      "type": "event"
    },
    {
      "anonymous": false,
      "inputs": [
        {
          "indexed": true,
          "internalType": "address",
          "name": "farmer",
          "type": "address"
        }
      ],
      "name": "CertificationRevoked",
      "type": "event"
    },
    {
      "anonymous": false,
      "inputs": [
        {
          "indexed": true,
          "internalType": "address",
          "name": "certifier",
          "type": "address"
        }
      ],
      "name": "CertifierAdded",
      "type": "event"
    },
    {
      "anonymous": false,
      "inputs": [
        {
          "indexed": true,
          "internalType": "address",
          "name": "certifier",
          "type": "address"
        }
      ],
      "name": "CertifierRemoved",
      "type": "event"
    },
    {
      "inputs": [
        {
          "internalType": "address",
          "name": "_certifier",
          "type": "address"
        }
      ],
      "name": "addCertifier",
      "outputs": [],
      "stateMutability": "nonpayable",
      "type": "function"
    },
    {
      "inputs": [],
      "name": "admin",
      "outputs": [
        {
          "internalType": "address",
          "name": "",
          "type": "address"
        }
      ],
      "stateMutability": "view",
      "type": "function"
    },
    {
      "inputs": [
        {
          "internalType": "address",
          "name": "",
          "type": "address"
        }
      ],
      "name": "certifiers",
      "outputs": [
        {
          "internalType": "bool",
          "name": "",
          "type": "bool"
        }
      ],
      "stateMutability": "view",
      "type": "function"
    },
    {
      "inputs": [
        {
          "internalType": "address",
          "name": "",
          "type": "address"
        }
      ],
      "name": "farmers",
      "outputs": [
        {
          "internalType": "bool",
          "name": "certified",
          "type": "bool"
        },
        {
          "internalType": "uint256",
          "name": "expiryDate",
          "type": "uint256"
        },
        {
          "internalType": "string",
          "name": "certificationBody",
          "type": "string"
        },
        {
          "internalType": "uint256",
          "name": "grantedAt",
          "type": "uint256"
        }
      ],
      "stateMutability": "view",
      "type": "function"
    },
    {
      "inputs": [
        {
          "internalType": "address",
          "name": "_farmer",
          "type": "address"
        }
      ],
      "name": "getCertification",
      "outputs": [
        {
          "internalType": "bool",
          "name": "certified",
          "type": "bool"
        },
        {
          "internalType": "uint256",
          "name": "expiryDate",
          "type": "uint256"
        },
        {
          "internalType": "string",
          "name": "certificationBody",
          "type": "string"
        },
        {
          "internalType": "uint256",
          "name": "grantedAt",
          "type": "uint256"
        }
      ],
      "stateMutability": "view",
      "type": "function"
    },
    {
      "inputs": [
        {
          "internalType": "address",
          "name": "_farmer",
          "type": "address"
        },
        {
          "internalType": "uint256",
          "name": "_expiryDate",
          "type": "uint256"
        },
        {
          "internalType": "string",
          "name": "_certificationBody",
          "type": "string"
        }
      ],
      "name": "grantCertification",
      "outputs": [],
      "stateMutability": "nonpayable",
      "type": "function"
    },
    {
      "inputs": [
        {
          "internalType": "address",
          "name": "_certifier",
          "type": "address"
        }
      ],
      "name": "removeCertifier",
      "outputs": [],
      "stateMutability": "nonpayable",
      "type": "function"
    },
    {
      "inputs": [
        {
          "internalType": "address",
          "name": "_farmer",
          "type": "address"
        }
      ],
      "name": "revokeCertification",
      "outputs": [],
      "stateMutability": "nonpayable",
      "type": "function"
    },
    {
      "inputs": [
        {
          "internalType": "address",
          "name": "_farmer",
          "type": "address"
        }
      ],
      "name": "verify",
      "outputs": [
        {
          "internalType": "bool",
          "name": "",
          "type": "bool"
        }
      ],
      "stateMutability": "view",
      "type": "function"
    }
  ],
  "bytecode": "0x608060405234801561001057600080fd5b50600080546001600160a01b03191633179055610b8a806100326000396000f3fe608060405234801561001057600080fd5b50600436106100925760003560e01c806363a9c3d71161006657806363a9c3d71461011e578063b83cc3b314610131578063c88cc6ac14610144578063e5182a6b14610157578063f851a4401461016a57600080fd5b806266753e146100975780632b198366146100ac578063401b2168146100bf5780635d42b2b9146100eb575b600080fd5b6100aa6100a5366004610863565b610195565b005b6100aa6100ba366004610863565b610238565b6100d26100cd366004610863565b610324565b6040516100e2949392919061087e565b60405180910390f35b61010e6100f9366004610863565b60016020526000908152604090205460ff1681565b60405190151581526020016100e2565b61010e61012c366004610863565b6103db565b6100aa61013f366004610863565b6104d1565b6100d2610152366004610863565b6105b1565b6100aa6101653660046108fa565b6106b6565b60005461017d906001600160a01b031681565b6040516001600160a01b0390911681526020016100e2565b6000546001600160a01b031633146101ef5760405162461bcd60e51b81526020600482015260186024820152774f6e6c792061646d696e2063616e2063616c6c207468697360401b60448201526064015b60405180910390fd5b6001600160a01b038116600081815260016020526040808220805460ff19169055517f45cee538c02c2ddcdfc31b5b9ab913c23f938f81483c880884d94694b2985a339190a250565b6000546001600160a01b0316331461028d5760405162461bcd60e51b81526020600482015260186024820152774f6e6c792061646d696e2063616e2063616c6c207468697360401b60448201526064016101e6565b6001600160a01b0381166102d55760405162461bcd60e51b815260206004820152600f60248201526e496e76616c6964206164647265737360881b60448201526064016101e6565b6001600160a01b0381166000818152600160208190526040808320805460ff1916909217909155517f9e685b594e54f370ef91382c0da443292b1378dec458f2a0d0009e7451547dab9190a250565b600260208190526000918252604090912080546001820154928201805460ff909216939291610352906109c5565b80601f016020809104026020016040519081016040528092919081815260200182805461037e906109c5565b80156103cb5780601f106103a0576101008083540402835291602001916103cb565b820191906000526020600020905b8154815290600101906020018083116103ae57829003601f168201915b5050505050908060030154905084565b6001600160a01b03811660009081526002602081815260408084208151608081018352815460ff1615158152600182015493810193909352928301805485949284019190610428906109c5565b80601f0160208091040260200160405190810160405280929190818152602001828054610454906109c5565b80156104a15780601f10610476576101008083540402835291602001916104a1565b820191906000526020600020905b81548152906001019060200180831161048457829003601f168201915b505050505081526020016003820154815250509050806000015180156104ca5750428160200151115b9392505050565b3360009081526001602052604090205460ff166105005760405162461bcd60e51b81526004016101e6906109ff565b6001600160a01b03811660009081526002602052604090205460ff166105685760405162461bcd60e51b815260206004820152601760248201527f4661726d6572206973206e6f742063657274696669656400000000000000000060448201526064016101e6565b6001600160a01b038116600081815260026020526040808220805460ff19169055517fddbc5d6ff23c8e382806a60af54f0614adddcbcb9b76b279a95a318414d7635b9190a250565b6001600160a01b03811660009081526002602081815260408084208151608081018352815460ff1615158152600182015493810193909352928301805485946060948694859491939084019190610607906109c5565b80601f0160208091040260200160405190810160405280929190818152602001828054610633906109c5565b80156106805780601f1061065557610100808354040283529160200191610680565b820191906000526020600020905b81548152906001019060200180831161066357829003601f168201915b50505091835250506003919091015460209182015281519082015160408301516060909301519199909850919650945092505050565b3360009081526001602052604090205460ff166106e55760405162461bcd60e51b81526004016101e6906109ff565b6001600160a01b0383166107345760405162461bcd60e51b8152602060048201526016602482015275496e76616c6964206661726d6572206164647265737360501b60448201526064016101e6565b42821161078d5760405162461bcd60e51b815260206004820152602160248201527f4578706972792064617465206d75737420626520696e207468652066757475726044820152606560f81b60648201526084016101e6565b60408051608081018252600180825260208083018681528385018681524260608601526001600160a01b0389166000908152600293849052959095208451815460ff1916901515178155905192810192909255925191929091908201906107f49082610a94565b506060919091015160039091015560405182815233906001600160a01b038516907fdad8c451ff5a12678c76d4cdeb0c2a94b672f025983c94d10ee8039a1833c5b49060200160405180910390a3505050565b80356001600160a01b038116811461085e57600080fd5b919050565b60006020828403121561087557600080fd5b6104ca82610847565b841515815260006020858184015260806040840152845180608085015260005b818110156108ba5786810183015185820160a00152820161089e565b50600060a0828601015260a0601f19601f8301168501019250505082606083015295945050505050565b634e487b7160e01b600052604160045260246000fd5b60008060006060848603121561090f57600080fd5b61091884610847565b925060208401359150604084013567ffffffffffffffff8082111561093c57600080fd5b818601915086601f83011261095057600080fd5b813581811115610962576109626108e4565b604051601f8201601f19908116603f0116810190838211818310171561098a5761098a6108e4565b816040528281528960208487010111156109a357600080fd5b8260208601602083013760006020848301015280955050505050509250925092565b600181811c908216806109d957607f821691505b6020821081036109f957634e487b7160e01b600052602260045260246000fd5b50919050565b60208082526026908201527f4f6e6c7920617070726f76656420636572746966696572732063616e2063616c6040820152656c207468697360d01b606082015260800190565b601f821115610a8f57600081815260208120601f850160051c81016020861015610a6c5750805b601f850160051c820191505b81811015610a8b57828155600101610a78565b5050505b505050565b815167ffffffffffffffff811115610aae57610aae6108e4565b610ac281610abc84546109c5565b84610a45565b602080601f831160018114610af75760008415610adf5750858301515b600019600386901b1c1916600185901b178555610a8b565b600085815260208120601f198616915b82811015610b2657888601518255948401946001909101908401610b07565b5085821015610b445787850151600019600388901b60f8161c191681555b5050505050600190811b0190555056fea26469706673582212201e2dd2edc02da049976471d838e73edab0f01241ef50ad6ea1acc21601ed646e64736f6c63430008140033",
  "linkReferences": {},
  "deployedLinkReferences": {}
}