{
  "_format": "hh-sol-artifact-1",
  "contractName": "ProductTracker",
  "sourceName": "contracts/ProductTracker.sol",
  "abi": [
    {
      "inputs": [
        {
          "internalType": "address",
          "name": "_certificationRegistry",
          "type": "address"
        }
      ],
      "stateMutability": "nonpayable",
      "type": "constructor"
    },
    {
      "anonymous": false,
      "inputs": [
        {
          "indexed": true,
          "internalType": "uint256",
          "name": "productId",
          "type": "uint256"
        },
        {
          "indexed": true,
          "internalType": "address",
          "name": "farmer",
          "type": "address"
        },
        {
          "indexed": false,
          "internalType": "string",
          "name": "productName",
          "type": "string"
        }
      ],
      "name": "ProductCreated",
      "type": "event"
    },
    {
      "anonymous": false,
      "inputs": [
        {
          "indexed": true,
          "internalType": "uint256",
          "name": "productId",
          "type": "uint256"
        },
        {
          "indexed": true,
          "internalType": "address",
          "name": "from",
          "type": "address"
        },
        {
          "indexed": true,
          "internalType": "address",
          "name": "to",
          "type": "address"
        },
        {
          "indexed": false,
          "internalType": "string",
          "name": "action",
          "type": "string"
        }
      ],
      "name": "ProductTransferred",
      "type": "event"
    },
    {
      "inputs": [],
      "name": "certificationRegistry",
      "outputs": [
        {
          "internalType": "contract CertificationRegistry",
          "name": "",
          "type": "address"
        }
      ],
      "stateMutability": "view",
      "type": "function"
    },
    {
      "inputs": [
        {
          "internalType": "string",
          "name": "_productName",
          "type": "string"
        },
        {
          "internalType": "uint256",
          "name": "_parentProductId",
          "type": "uint256"
        },
        {
          "internalType": "string",
          "name": "_details",
          "type": "string"
        }
      ],
      "name": "createProduct",
      "outputs": [
        {
          "internalType": "uint256",
          "name": "",
          "type": "uint256"
        }
      ],
      "stateMutability": "nonpayable",
      "type": "function"
    },
    {
      "inputs": [
        {
          "internalType": "address",
          "name": "",
          "type": "address"
        },
        {
          "internalType": "uint256",
          "name": "",
          "type": "uint256"
        }
      ],
      "name": "farmerProducts",
      "outputs": [
        {
          "internalType": "uint256",
          "name": "",
          "type": "uint256"
        }
      ],
      "stateMutability": "view",
      "type": "function"
    },
    {
      "inputs": [
        {
          "internalType": "address",
          "name": "_farmer",
          "type": "address"
        }
      ],
      "name": "getFarmerProducts",
      "outputs": [
        {
          "internalType": "uint256[]",
          "name": "",
          "type": "uint256[]"
        }
      ],
      "stateMutability": "view",
      "type": "function"
    },
    {
      "inputs": [
        {
          "internalType": "uint256",
          "name": "_productId",
          "type": "uint256"
        },
        {
          "internalType": "uint256",
          "name": "_index",
          "type": "uint256"
        }
      ],
      "name": "getHistoryEntry",
      "outputs": [
        {
          "internalType": "address",
          "name": "actor",
          "type": "address"
        },
        {
          "internalType": "string",
          "name": "action",
          "type": "string"
        },
        {
          "internalType": "uint256",
          "name": "timestamp",
          "type": "uint256"
        },
        {
          "internalType": "string",
          "name": "details",
          "type": "string"
        }
      ],
      "stateMutability": "view",
      "type": "function"
    },
    {
      "inputs": [
        {
          "internalType": "uint256",
          "name": "_productId",
          "type": "uint256"
        }
      ],
      "name": "getHistoryLength",
      "outputs": [
        {
          "internalType": "uint256",
          "name": "",
          "type": "uint256"
        }
      ],
      "stateMutability": "view",
      "type": "function"
    },
    {
      "inputs": [
        {
          "internalType": "uint256",
          "name": "_productId",
          "type": "uint256"
        }
      ],
      "name": "getProduct",
      "outputs": [
        {
          "internalType": "uint256",
          "name": "productId",
          "type": "uint256"
        },
        {
          "internalType": "address",
          "name": "farmer",
          "type": "address"
        },
        {
          "internalType": "address",
          "name": "currentOwner",
          "type": "address"
        },
        {
          "internalType": "string",
          "name": "productName",
          "type": "string"
        },
        {
          "internalType": "uint256",
          "name": "parentProductId",
          "type": "uint256"
        },
        {
          "internalType": "uint256",
          "name": "createdAt",
          "type": "uint256"
        },
        {
          "components": [
            {
              "internalType": "address",
              "name": "actor",
              "type": "address"
            },
            {
              "internalType": "string",
              "name": "action",
              "type": "string"
            },
            {
              "internalType": "uint256",
              "name": "timestamp",
              "type": "uint256"
            },
            {
              "internalType": "string",
              "name": "details",
              "type": "string"
            }
          ],
          "internalType": "struct ProductTracker.HistoryEntry[]",
          "name": "history",
          "type": "tuple[]"
        }
      ],
      "stateMutability": "view",
      "type": "function"
    },
    {
      "inputs": [],
      "name": "productCounter",
      "outputs": [
        {
          "internalType": "uint256",
          "name": "",
          "type": "uint256"
        }
      ],
      "stateMutability": "view",
      "type": "function"
    },
    {
      "inputs": [
        {
          "internalType": "uint256",
          "name": "",
          "type": "uint256"
        }
      ],
      "name": "products",
      "outputs": [
        {
          "internalType": "uint256",
          "name": "productId",
          "type": "uint256"
        },
        {
          "internalType": "address",
          "name": "farmer",
          "type": "address"
        },
        {
          "internalType": "address",
          "name": "currentOwner",
          "type": "address"
        },
        {
          "internalType": "string",
          "name": "productName",
          "type": "string"
        },
        {
          "internalType": "uint256",
          "name": "parentProductId",
          "type": "uint256"
        },
        {
          "internalType": "uint256",
          "name": "createdAt",
          "type": "uint256"
        }
      ],
      "stateMutability": "view",
      "type": "function"
    },
    {
      "inputs": [
        {
          "internalType": "uint256",
          "name": "_productId",
          "type": "uint256"
        },
        {
          "internalType": "address",
          "name": "_newOwner",
          "type": "address"
        },
        {
          "internalType": "string",
          "name": "_action",
          "type": "string"
        },
        {
          "internalType": "string",
          "name": "_details",
          "type": "string"
        }
      ],
      "name": "transferProduct",
      "outputs": [],
      "stateMutability": "nonpayable",
      "type": "function"
    }
  ],
  "bytecode": "0x608060405234801561001057600080fd5b5060405161125138038061125183398101604081905261002f91610058565b600080546001600160a01b0319166001600160a01b039290921691909117905560018055610088565b60006020828403121561006a57600080fd5b81516001600160a01b038116811461008157600080fd5b9392505050565b6111ba806100976000396000f3fe608060405234801561001057600080fd5b506004361061009e5760003560e01c8063b38fe06b11610066578063b38fe06b14610156578063b9db15b414610179578063eb23f41e1461019f578063fece8772146101b4578063ff38ec0f146101c757600080fd5b806302ba6f8d146100a35780630a5cf042146100cf5780631f16653b146100ef5780635d067bab146101065780637acc0b2014610131575b600080fd5b6100b66100b1366004610ba3565b6101da565b6040516100c69493929190610c0b565b60405180910390f35b6100e26100dd366004610c6e565b61036a565b6040516100c69190610c90565b6100f860015481565b6040519081526020016100c6565b600054610119906001600160a01b031681565b6040516001600160a01b0390911681526020016100c6565b61014461013f366004610cd4565b6103d6565b6040516100c696959493929190610ced565b6100f8610164366004610cd4565b60009081526002602052604090206005015490565b61018c610187366004610cd4565b6104a1565b6040516100c69796959493929190610d34565b6101b26101ad366004610eb4565b610736565b005b6100f86101c2366004610f32565b61091c565b6100f86101d5366004610f5c565b61094d565b6000606060006060600060026000888152602001908152602001600020600501868154811061020b5761020b610fc9565b906000526020600020906004020190508060000160009054906101000a90046001600160a01b03168160010182600201548360030182805461024c90610fdf565b80601f016020809104026020016040519081016040528092919081815260200182805461027890610fdf565b80156102c55780601f1061029a576101008083540402835291602001916102c5565b820191906000526020600020905b8154815290600101906020018083116102a857829003601f168201915b505050505092508080546102d890610fdf565b80601f016020809104026020016040519081016040528092919081815260200182805461030490610fdf565b80156103515780601f1061032657610100808354040283529160200191610351565b820191906000526020600020905b81548152906001019060200180831161033457829003601f168201915b5050505050905094509450945094505092959194509250565b6001600160a01b0381166000908152600360209081526040918290208054835181840281018401909452808452606093928301828280156103ca57602002820191906000526020600020905b8154815260200190600101908083116103b6575b50505050509050919050565b6002602081905260009182526040909120805460018201549282015460038301805492946001600160a01b039081169492169261041290610fdf565b80601f016020809104026020016040519081016040528092919081815260200182805461043e90610fdf565b801561048b5780601f106104605761010080835404028352916020019161048b565b820191906000526020600020905b81548152906001019060200180831161046e57829003601f168201915b5050505050908060040154908060060154905086565b6000818152600260208190526040822080546001820154928201546004830154600684015460038501805488978897606097899788978a97939692956001600160a01b0395861695909216939091600588019084906104ff90610fdf565b80601f016020809104026020016040519081016040528092919081815260200182805461052b90610fdf565b80156105785780601f1061054d57610100808354040283529160200191610578565b820191906000526020600020905b81548152906001019060200180831161055b57829003601f168201915b5050505050935080805480602002602001604051908101604052809291908181526020016000905b8282101561071657600084815260209081902060408051608081019091526004850290910180546001600160a01b0316825260018101805492939192918401916105e990610fdf565b80601f016020809104026020016040519081016040528092919081815260200182805461061590610fdf565b80156106625780601f1061063757610100808354040283529160200191610662565b820191906000526020600020905b81548152906001019060200180831161064557829003601f168201915b505050505081526020016002820154815260200160038201805461068590610fdf565b80601f01602080910402602001604051908101604052809291908181526020018280546106b190610fdf565b80156106fe5780601f106106d3576101008083540402835291602001916106fe565b820191906000526020600020905b8154815290600101906020018083116106e157829003601f168201915b505050505081525050815260200190600101906105a0565b505050509050975097509750975097509750975050919395979092949650565b6000848152600260208190526040909120015484906001600160a01b031633146107bc5760405162461bcd60e51b815260206004820152602c60248201527f4f6e6c792063757272656e74206f776e65722063616e207472616e736665722060448201526b1d1a1a5cc81c1c9bd91d58dd60a21b60648201526084015b60405180910390fd5b6001600160a01b0384166108125760405162461bcd60e51b815260206004820152601960248201527f496e76616c696420726563697069656e7420616464726573730000000000000060448201526064016107b3565b600085815260026020818152604080842092830180546001600160a01b03198082166001600160a01b038c81169190911790935583516080810185523381528086018b81524295820195909552606081018a905260058701805460018181018355918a52969098208151600490970201805490921695841695909517815592519495911693908201906108a59082611068565b5060408201516002820155606082015160038201906108c49082611068565b505050856001600160a01b0316816001600160a01b0316887f7b9954163fa07d871126e4bf9e86dd39a340304d4ffa6a8f7b5eae106152ee038860405161090b9190611128565b60405180910390a450505050505050565b6003602052816000526040600020818154811061093857600080fd5b90600052602060002001600091509150505481565b600080546040516363a9c3d760e01b81523360048201526001600160a01b03909116906363a9c3d790602401602060405180830381865afa158015610996573d6000803e3d6000fd5b505050506040513d601f19601f820116820180604052508101906109ba919061113b565b610a195760405162461bcd60e51b815260206004820152602a60248201527f4f6e6c7920636572746966696564206661726d6572732063616e206372656174604482015269652070726f647563747360b01b60648201526084016107b3565b6001805460009182610a2a8361115d565b909155506000818152600260208190526040909120828155600181018054336001600160a01b0319918216811790925592820180549093161790915590915060038101610a778782611068565b50600481810186905542600683018190556040805160808101825233815281518083018352600981526812185c9d995cdd195960ba1b60208083019190915280830191825292820193909352606081018890526005850180546001808201835560009283529390912082519190950290940180546001600160a01b0319166001600160a01b03909516949094178455915191929190820190610b199082611068565b506040820151600282015560608201516003820190610b389082611068565b5050336000818152600360209081526040808320805460018101825590845291909220018590555190915083907f91bfc064380de20e1c90ea2ed78d0358b4ab45d446c0b93b0b07bc86f95897da90610b92908a90611128565b60405180910390a350949350505050565b60008060408385031215610bb657600080fd5b50508035926020909101359150565b6000815180845260005b81811015610beb57602081850181015186830182015201610bcf565b506000602082860101526020601f19601f83011685010191505092915050565b6001600160a01b0385168152608060208201819052600090610c2f90830186610bc5565b8460408401528281036060840152610c478185610bc5565b979650505050505050565b80356001600160a01b0381168114610c6957600080fd5b919050565b600060208284031215610c8057600080fd5b610c8982610c52565b9392505050565b6020808252825182820181905260009190848201906040850190845b81811015610cc857835183529284019291840191600101610cac565b50909695505050505050565b600060208284031215610ce657600080fd5b5035919050565b8681526001600160a01b0386811660208301528516604082015260c060608201819052600090610d1f90830186610bc5565b60808301949094525060a00152949350505050565b8781526000602060018060a01b03808a16828501526040818a1681860152606060e081870152610d6760e087018b610bc5565b60808a818901528960a089015287820360c08901528189518084528784019150878160051b850101888c0160005b83811015610df757601f1987840301855281518a81511684528b810151878d860152610dc388860182610bc5565b828c0151868d0152918a01518583038b870152919050610de38183610bc5565b968d019694505050908a0190600101610d95565b505080995050505050505050505098975050505050505050565b634e487b7160e01b600052604160045260246000fd5b600082601f830112610e3857600080fd5b813567ffffffffffffffff80821115610e5357610e53610e11565b604051601f8301601f19908116603f01168101908282118183101715610e7b57610e7b610e11565b81604052838152866020858801011115610e9457600080fd5b836020870160208301376000602085830101528094505050505092915050565b60008060008060808587031215610eca57600080fd5b84359350610eda60208601610c52565b9250604085013567ffffffffffffffff80821115610ef757600080fd5b610f0388838901610e27565b93506060870135915080821115610f1957600080fd5b50610f2687828801610e27565b91505092959194509250565b60008060408385031215610f4557600080fd5b610f4e83610c52565b946020939093013593505050565b600080600060608486031215610f7157600080fd5b833567ffffffffffffffff80821115610f8957600080fd5b610f9587838801610e27565b9450602086013593506040860135915080821115610fb257600080fd5b50610fbf86828701610e27565b9150509250925092565b634e487b7160e01b600052603260045260246000fd5b600181811c90821680610ff357607f821691505b60208210810361101357634e487b7160e01b600052602260045260246000fd5b50919050565b601f82111561106357600081815260208120601f850160051c810160208610156110405750805b601f850160051c820191505b8181101561105f5782815560010161104c565b5050505b505050565b815167ffffffffffffffff81111561108257611082610e11565b611096816110908454610fdf565b84611019565b602080601f8311600181146110cb57600084156110b35750858301515b600019600386901b1c1916600185901b17855561105f565b600085815260208120601f198616915b828110156110fa578886015182559484019460019091019084016110db565b50858210156111185787850151600019600388901b60f8161c191681555b5050505050600190811b01905550565b602081526000610c896020830184610bc5565b60006020828403121561114d57600080fd5b81518015158114610c8957600080fd5b60006001820161117d57634e487b7160e01b600052601160045260246000fd5b506001019056fea2646970667358221220b01af4a54c48c2eb8a3c29d299cb227ade9e2513df2b99b810d73ae7937fd4c164736f6c63430008140033",
  "linkReferences": {},
  "deployedLinkReferences": {}
}