{
  "_format": "hh-sol-artifact-1",
  "contractName": "ProductTracker",
  "sourceName": "contracts/ProductTracker.sol",
  "abi": [
    {
      "inputs": [
        {
          "internalType": "address",
          "name": "_certificationRegistry",
          "type": "address"
        }
      ],
      "stateMutability": "nonpayable",
      "type": "constructor"
    },
    {
      "anonymous": false,
      "inputs": [
        {
          "indexed": true,
          "internalType": "uint256",
          "name": "productId",
          "type": "uint256"
        },
        {
          "indexed": true,
          "internalType": "address",
          "name": "actor",
          "type": "address"
        },
        {
          "indexed": false,
          "internalType": "string",
          "name": "action",
          "type": "string"
        },
        {
          "indexed": false,
          "internalType": "string",
          "name": "details",
          "type": "string"
        },
        {
          "indexed": false,
          "internalType": "string",
          "name": "ipfsImageHash",
          "type": "string"
        }
      ],
      "name": "HistoryEventAdded",
      "type": "event"
    },
    {
      "anonymous": false,
      "inputs": [
        {
          "indexed": true,
          "internalType": "uint256",
          "name": "productId",
          "type": "uint256"
        },
        {
          "indexed": true,
          "internalType": "address",
          "name": "farmer",
          "type": "address"
        },
        {
          "indexed": false,
          "internalType": "string",
          "name": "productName",
          "type": "string"
        }
      ],
      "name": "ProductCreated",
      "type": "event"
    },
    {
      "anonymous": false,
      "inputs": [
        {
          "indexed": true,
          "internalType": "uint256",
          "name": "productId",
          "type": "uint256"
        },
        {
          "indexed": true,
          "internalType": "address",
          "name": "from",
          "type": "address"
        },
        {
          "indexed": true,
          "internalType": "address",
          "name": "to",
          "type": "address"
        },
        {
          "indexed": false,
          "internalType": "string",
          "name": "action",
          "type": "string"
        }
      ],
      "name": "ProductTransferred",
      "type": "event"
    },
    {
      "inputs": [
        {
          "internalType": "uint256",
          "name": "_productId",
          "type": "uint256"
        },
        {
          "internalType": "string",
          "name": "_action",
          "type": "string"
        },
        {
          "internalType": "string",
          "name": "_details",
          "type": "string"
        },
        {
          "internalType": "string",
          "name": "_ipfsImageHash",
          "type": "string"
        }
      ],
      "name": "addHistoryEvent",
      "outputs": [],
      "stateMutability": "nonpayable",
      "type": "function"
    },
    {
      "inputs": [],
      "name": "certificationRegistry",
      "outputs": [
        {
          "internalType": "contract CertificationRegistry",
          "name": "",
          "type": "address"
        }
      ],
      "stateMutability": "view",
      "type": "function"
    },
    {
      "inputs": [
        {
          "internalType": "string",
          "name": "_productName",
          "type": "string"
        },
        {
          "internalType": "uint256",
          "name": "_parentProductId",
          "type": "uint256"
        },
        {
          "internalType": "string",
          "name": "",
          "type": "string"
        }
      ],
      "name": "createProduct",
      "outputs": [
        {
          "internalType": "uint256",
          "name": "",
          "type": "uint256"
        }
      ],
      "stateMutability": "nonpayable",
      "type": "function"
    },
    {
      "inputs": [
        {
          "internalType": "address",
          "name": "",
          "type": "address"
        },
        {
          "internalType": "uint256",
          "name": "",
          "type": "uint256"
        }
      ],
      "name": "farmerProducts",
      "outputs": [
        {
          "internalType": "uint256",
          "name": "",
          "type": "uint256"
        }
      ],
      "stateMutability": "view",
      "type": "function"
    },
    {
      "inputs": [
        {
          "internalType": "address",
          "name": "_farmer",
          "type": "address"
        }
      ],
      "name": "getFarmerProducts",
      "outputs": [
        {
          "internalType": "uint256[]",
          "name": "",
          "type": "uint256[]"
        }
      ],
      "stateMutability": "view",
      "type": "function"
    },
    {
      "inputs": [
        {
          "internalType": "uint256",
          "name": "_productId",
          "type": "uint256"
        },
        {
          "internalType": "uint256",
          "name": "_index",
          "type": "uint256"
        }
      ],
      "name": "getHistoryEntry",
      "outputs": [
        {
          "internalType": "address",
          "name": "actor",
          "type": "address"
        },
        {
          "internalType": "string",
          "name": "action",
          "type": "string"
        },
        {
          "internalType": "uint256",
          "name": "timestamp",
          "type": "uint256"
        },
        {
          "internalType": "string",
          "name": "details",
          "type": "string"
        },
        {
          "internalType": "string",
          "name": "ipfsImageHash",
          "type": "string"
        }
      ],
      "stateMutability": "view",
      "type": "function"
    },
    {
      "inputs": [
        {
          "internalType": "uint256",
          "name": "_productId",
          "type": "uint256"
        }
      ],
      "name": "getHistoryLength",
      "outputs": [
        {
          "internalType": "uint256",
          "name": "",
          "type": "uint256"
        }
      ],
      "stateMutability": "view",
      "type": "function"
    },
    {
      "inputs": [
        {
          "internalType": "uint256",
          "name": "_productId",
          "type": "uint256"
        }
      ],
      "name": "getProduct",
      "outputs": [
        {
          "internalType": "uint256",
          "name": "productId",
          "type": "uint256"
        },
        {
          "internalType": "address",
          "name": "farmer",
          "type": "address"
        },
        {
          "internalType": "address",
          "name": "currentOwner",
          "type": "address"
        },
        {
          "internalType": "string",
          "name": "productName",
          "type": "string"
        },
        {
          "internalType": "uint256",
          "name": "parentProductId",
          "type": "uint256"
        },
        {
          "internalType": "uint256",
          "name": "createdAt",
          "type": "uint256"
        },
        {
          "components": [
            {
              "internalType": "address",
              "name": "actor",
              "type": "address"
            },
            {
              "internalType": "string",
              "name": "action",
              "type": "string"
            },
            {
              "internalType": "uint256",
              "name": "timestamp",
              "type": "uint256"
            },
            {
              "internalType": "string",
              "name": "details",
              "type": "string"
            },
            {
              "internalType": "string",
              "name": "ipfsImageHash",
              "type": "string"
            }
          ],
          "internalType": "struct ProductTracker.HistoryEntry[]",
          "name": "history",
          "type": "tuple[]"
        }
      ],
      "stateMutability": "view",
      "type": "function"
    },
    {
      "inputs": [],
      "name": "productCounter",
      "outputs": [
        {
          "internalType": "uint256",
          "name": "",
          "type": "uint256"
        }
      ],
      "stateMutability": "view",
      "type": "function"
    },
    {
      "inputs": [
        {
          "internalType": "uint256",
          "name": "",
          "type": "uint256"
        }
      ],
      "name": "products",
      "outputs": [
        {
          "internalType": "uint256",
          "name": "productId",
          "type": "uint256"
        },
        {
          "internalType": "address",
          "name": "farmer",
          "type": "address"
        },
        {
          "internalType": "address",
          "name": "currentOwner",
          "type": "address"
        },
        {
          "internalType": "string",
          "name": "productName",
          "type": "string"
        },
        {
          "internalType": "uint256",
          "name": "parentProductId",
          "type": "uint256"
        },
        {
          "internalType": "uint256",
          "name": "createdAt",
          "type": "uint256"
        }
      ],
      "stateMutability": "view",
      "type": "function"
    },
    {
      "inputs": [
        {
          "internalType": "uint256",
          "name": "_productId",
          "type": "uint256"
        },
        {
          "internalType": "address",
          "name": "_newOwner",
          "type": "address"
        },
        {
          "internalType": "string",
          "name": "_action",
          "type": "string"
        },
        {
          "internalType": "string",
          "name": "_details",
          "type": "string"
        }
      ],
      "name": "transferProduct",
      "outputs": [],
      "stateMutability": "nonpayable",
      "type": "function"
    }
  ],
  "bytecode": "0x608060405234801561001057600080fd5b5060405161158b38038061158b83398101604081905261002f91610058565b600080546001600160a01b0319166001600160a01b039290921691909117905560018055610088565b60006020828403121561006a57600080fd5b81516001600160a01b038116811461008157600080fd5b9392505050565b6114f4806100976000396000f3fe608060405234801561001057600080fd5b50600436106100a95760003560e01c80637acc0b20116100715780637acc0b2014610152578063b38fe06b14610177578063b9db15b41461019a578063eb23f41e146101c0578063fece8772146101d3578063ff38ec0f146101e657600080fd5b806302ba6f8d146100ae5780630a5cf042146100db5780631f16653b146100fb57806334b1bd86146101125780635d067bab14610127575b600080fd5b6100c16100bc366004610e13565b6101f9565b6040516100d2959493929190610e7b565b60405180910390f35b6100ee6100e9366004610ef3565b61041d565b6040516100d29190610f15565b61010460015481565b6040519081526020016100d2565b610125610120366004610ffc565b610489565b005b60005461013a906001600160a01b031681565b6040516001600160a01b0390911681526020016100d2565b61016561016036600461108e565b61064c565b6040516100d2969594939291906110a7565b61010461018536600461108e565b60009081526002602052604090206005015490565b6101ad6101a836600461108e565b610717565b6040516100d297969594939291906110ee565b6101256101ce3660046111e6565b610a3e565b6101046101e1366004611229565b610c44565b6101046101f4366004611253565b610c75565b600060606000606080600060026000898152602001908152602001600020600501878154811061022b5761022b6112c0565b906000526020600020906005020190508060000160009054906101000a90046001600160a01b03168160010182600201548360030184600401838054610270906112d6565b80601f016020809104026020016040519081016040528092919081815260200182805461029c906112d6565b80156102e95780601f106102be576101008083540402835291602001916102e9565b820191906000526020600020905b8154815290600101906020018083116102cc57829003601f168201915b505050505093508180546102fc906112d6565b80601f0160208091040260200160405190810160405280929190818152602001828054610328906112d6565b80156103755780601f1061034a57610100808354040283529160200191610375565b820191906000526020600020905b81548152906001019060200180831161035857829003601f168201915b50505050509150808054610388906112d6565b80601f01602080910402602001604051908101604052809291908181526020018280546103b4906112d6565b80156104015780601f106103d657610100808354040283529160200191610401565b820191906000526020600020905b8154815290600101906020018083116103e457829003601f168201915b5050505050905095509550955095509550509295509295909350565b6001600160a01b03811660009081526003602090815260409182902080548351818402810184019094528084526060939283018282801561047d57602002820191906000526020600020905b815481526020019060010190808311610469575b50505050509050919050565b600084815260026020526040812080549091036104e65760405162461bcd60e51b8152602060048201526016602482015275141c9bd91d58dd08191bd95cc81b9bdd08195e1a5cdd60521b60448201526064015b60405180910390fd5b60028101546001600160a01b0316331461054d5760405162461bcd60e51b815260206004820152602260248201527f4f6e6c792063757272656e74206f776e65722063616e2061646420686973746f604482015261727960f01b60648201526084016104dd565b6040805160a081018252338152602080820187815242938301939093526060820186905260808201859052600584810180546001808201835560009283529390912084519190920290910180546001600160a01b0319166001600160a01b039092169190911781559251919291908201906105c8908261135f565b5060408201516002820155606082015160038201906105e7908261135f565b50608082015160048201906105fc908261135f565b505050336001600160a01b0316857fa994c03eb29962633d1800f6f087718ffa3e0c6b64d0088b263af57dce82507386868660405161063d9392919061141f565b60405180910390a35050505050565b6002602081905260009182526040909120805460018201549282015460038301805492946001600160a01b0390811694921692610688906112d6565b80601f01602080910402602001604051908101604052809291908181526020018280546106b4906112d6565b80156107015780601f106106d657610100808354040283529160200191610701565b820191906000526020600020905b8154815290600101906020018083116106e457829003601f168201915b5050505050908060040154908060060154905086565b6000818152600260208190526040822080546001820154928201546004830154600684015460038501805488978897606097899788978a97939692956001600160a01b039586169590921693909160058801908490610775906112d6565b80601f01602080910402602001604051908101604052809291908181526020018280546107a1906112d6565b80156107ee5780601f106107c3576101008083540402835291602001916107ee565b820191906000526020600020905b8154815290600101906020018083116107d157829003601f168201915b5050505050935080805480602002602001604051908101604052809291908181526020016000905b82821015610a1e5760008481526020908190206040805160a081019091526005850290910180546001600160a01b03168252600181018054929391929184019161085f906112d6565b80601f016020809104026020016040519081016040528092919081815260200182805461088b906112d6565b80156108d85780601f106108ad576101008083540402835291602001916108d8565b820191906000526020600020905b8154815290600101906020018083116108bb57829003601f168201915b50505050508152602001600282015481526020016003820180546108fb906112d6565b80601f0160208091040260200160405190810160405280929190818152602001828054610927906112d6565b80156109745780601f1061094957610100808354040283529160200191610974565b820191906000526020600020905b81548152906001019060200180831161095757829003601f168201915b5050505050815260200160048201805461098d906112d6565b80601f01602080910402602001604051908101604052809291908181526020018280546109b9906112d6565b8015610a065780601f106109db57610100808354040283529160200191610a06565b820191906000526020600020905b8154815290600101906020018083116109e957829003601f168201915b50505050508152505081526020019060010190610816565b505050509050975097509750975097509750975050919395979092949650565b6000848152600260208190526040909120015484906001600160a01b03163314610abf5760405162461bcd60e51b815260206004820152602c60248201527f4f6e6c792063757272656e74206f776e65722063616e207472616e736665722060448201526b1d1a1a5cc81c1c9bd91d58dd60a21b60648201526084016104dd565b6001600160a01b038416610b155760405162461bcd60e51b815260206004820152601960248201527f496e76616c696420726563697069656e7420616464726573730000000000000060448201526064016104dd565b600085815260026020818152604080842092830180546001600160a01b03198082166001600160a01b038c811691909117909355835160a0810185523381528086018b81524282870152606082018b9052855180880190965288865260808201959095526005808801805460018181018355918b52979099208251979091020180549092169584169590951781559251949591169390820190610bb8908261135f565b506040820151600282015560608201516003820190610bd7908261135f565b5060808201516004820190610bec908261135f565b505050856001600160a01b0316816001600160a01b0316887f7b9954163fa07d871126e4bf9e86dd39a340304d4ffa6a8f7b5eae106152ee0388604051610c339190611462565b60405180910390a450505050505050565b60036020528160005260406000208181548110610c6057600080fd5b90600052602060002001600091509150505481565b600080546040516363a9c3d760e01b81523360048201526001600160a01b03909116906363a9c3d790602401602060405180830381865afa158015610cbe573d6000803e3d6000fd5b505050506040513d601f19601f82011682018060405250810190610ce29190611475565b610d415760405162461bcd60e51b815260206004820152602a60248201527f4f6e6c7920636572746966696564206661726d6572732063616e206372656174604482015269652070726f647563747360b01b60648201526084016104dd565b6001805460009182610d5283611497565b909155506000818152600260208190526040909120828155600181018054336001600160a01b0319918216811790925592820180549093161790915590915060038101610d9f878261135f565b5060048101859055426006820155336000818152600360209081526040808320805460018101825590845291909220018490555183907f91bfc064380de20e1c90ea2ed78d0358b4ab45d446c0b93b0b07bc86f95897da90610e02908a90611462565b60405180910390a350949350505050565b60008060408385031215610e2657600080fd5b50508035926020909101359150565b6000815180845260005b81811015610e5b57602081850181015186830182015201610e3f565b506000602082860101526020601f19601f83011685010191505092915050565b6001600160a01b038616815260a060208201819052600090610e9f90830187610e35565b8560408401528281036060840152610eb78186610e35565b90508281036080840152610ecb8185610e35565b98975050505050505050565b80356001600160a01b0381168114610eee57600080fd5b919050565b600060208284031215610f0557600080fd5b610f0e82610ed7565b9392505050565b6020808252825182820181905260009190848201906040850190845b81811015610f4d57835183529284019291840191600101610f31565b50909695505050505050565b634e487b7160e01b600052604160045260246000fd5b600082601f830112610f8057600080fd5b813567ffffffffffffffff80821115610f9b57610f9b610f59565b604051601f8301601f19908116603f01168101908282118183101715610fc357610fc3610f59565b81604052838152866020858801011115610fdc57600080fd5b836020870160208301376000602085830101528094505050505092915050565b6000806000806080858703121561101257600080fd5b84359350602085013567ffffffffffffffff8082111561103157600080fd5b61103d88838901610f6f565b9450604087013591508082111561105357600080fd5b61105f88838901610f6f565b9350606087013591508082111561107557600080fd5b5061108287828801610f6f565b91505092959194509250565b6000602082840312156110a057600080fd5b5035919050565b8681526001600160a01b0386811660208301528516604082015260c0606082018190526000906110d990830186610e35565b60808301949094525060a00152949350505050565b8781526000602060018060a01b03808a16828501526040818a1681860152606060e08187015261112160e087018b610e35565b60808a8189015260a08a818a015288830360c08a0152828a518085528885019150888160051b860101898d0160005b838110156111cb57601f1988840301855281518b81511684528c810151878e86015261117e88860182610e35565b90508b8201518c8601528a8201518582038c87015261119d8282610e35565b915050888201519150848103898601526111b78183610e35565b968e019694505050908b0190600101611150565b5050809a505050505050505050505098975050505050505050565b600080600080608085870312156111fc57600080fd5b8435935061120c60208601610ed7565b9250604085013567ffffffffffffffff8082111561105357600080fd5b6000806040838503121561123c57600080fd5b61124583610ed7565b946020939093013593505050565b60008060006060848603121561126857600080fd5b833567ffffffffffffffff8082111561128057600080fd5b61128c87838801610f6f565b94506020860135935060408601359150808211156112a957600080fd5b506112b686828701610f6f565b9150509250925092565b634e487b7160e01b600052603260045260246000fd5b600181811c908216806112ea57607f821691505b60208210810361130a57634e487b7160e01b600052602260045260246000fd5b50919050565b601f82111561135a57600081815260208120601f850160051c810160208610156113375750805b601f850160051c820191505b8181101561135657828155600101611343565b5050505b505050565b815167ffffffffffffffff81111561137957611379610f59565b61138d8161138784546112d6565b84611310565b602080601f8311600181146113c257600084156113aa5750858301515b600019600386901b1c1916600185901b178555611356565b600085815260208120601f198616915b828110156113f1578886015182559484019460019091019084016113d2565b508582101561140f5787850151600019600388901b60f8161c191681555b5050505050600190811b01905550565b6060815260006114326060830186610e35565b82810360208401526114448186610e35565b905082810360408401526114588185610e35565b9695505050505050565b602081526000610f0e6020830184610e35565b60006020828403121561148757600080fd5b81518015158114610f0e57600080fd5b6000600182016114b757634e487b7160e01b600052601160045260246000fd5b506001019056fea2646970667358221220a1a01b11d343cfadd228b627afd6861ec92d2a64a5365162c8dc5d8d181b2ae264736f6c63430008140033",
  "linkReferences": {},
  "deployedLinkReferences": {}
}